{
  "transactions": [
    {
      "hash": "0xaa0ab74547e8079d0c4ee60a775eb86d96cdf35b086a4fc523b8f1c4e7aac26d",
      "transactionType": "CALL",
      "contractName": null,
      "contractAddress": "0xb99cc53e8db7018f557606c2a5b066527bf96b26",
      "function": "createTask((address,(address,uint32),bytes))",
      "arguments": [
        "(0x0000000000000000000000000000000000000000, (0x70997970C51812dc3A010C7d01b50e0d17dc79C8, 1), 0x000000000000000000000000000000000000000000000000000000000000002000000000000000000000000000000000000000000000000000000000000000050000000000000000000000000000000000000000000000000000000000000040000000000000000000000000000000000000000000000000000000000000000568656c6c6f000000000000000000000000000000000000000000000000000000)"
      ],
      "transaction": {
        "from": "0x3c44cdddb6a900fa2b585dd299e03d12fa4293bc",
        "to": "0xb99cc53e8db7018f557606c2a5b066527bf96b26",
        "gas": "0x945f9",
        "value": "0x0",
        "input": "0x1fb66f5d0000000000000000000000000000000000000000000000000000000000000020000000000000000000000000000000000000000000000000000000000000000000000000000000000000000070997970c51812dc3a010c7d01b50e0d17dc79c80000000000000000000000000000000000000000000000000000000000000001000000000000000000000000000000000000000000000000000000000000008000000000000000000000000000000000000000000000000000000000000000a0000000000000000000000000000000000000000000000000000000000000002000000000000000000000000000000000000000000000000000000000000000050000000000000000000000000000000000000000000000000000000000000040000000000000000000000000000000000000000000000000000000000000000568656c6c6f000000000000000000000000000000000000000000000000000000",
        "nonce": "0x408",
        "chainId": "0x7a6a"
      },
      "additionalContracts": [],
      "isFixedGasLimit": false
    }
  ],
  "receipts": [
    {
      "status": "0x1",
      "cumulativeGasUsed": "0x6573b",
      "logs": [
        {
          "address": "0xb99cc53e8db7018f557606c2a5b066527bf96b26",
          "topics": [
            "0x33add0b01e02278be5459fbfa3274aee699ec47f4ee7236b59e7a2c8b5000c26",
            "0x0000000000000000000000003c44cdddb6a900fa2b585dd299e03d12fa4293bc",
            "0x09f9dd697702e7c2bec13a1d833696d316e95f19790cb4e21585045be4b2c2f5",
            "0x00000000000000000000000070997970c51812dc3a010c7d01b50e0d17dc79c8"
          ],
          "data": "0x00000000000000000000000000000000000000000000000000000000000000010000000000000000000000000000000000000000000000000000000068b0e3ee000000000000000000000000000000000000000000000000000000000000000000000000000000000000000000000000000000000000000000000000000000000000000000000000000000000000000000000000000000000000000068b0e55000000000000000000000000000000000000000000000000000000000000000c000000000000000000000000000000000000000000000000000000000000000a0000000000000000000000000000000000000000000000000000000000000002000000000000000000000000000000000000000000000000000000000000000050000000000000000000000000000000000000000000000000000000000000040000000000000000000000000000000000000000000000000000000000000000568656c6c6f000000000000000000000000000000000000000000000000000000",
          "blockHash": "0xbe53ecd335cd542aea8ce0f3b5ec1c9d39875dff6d1469c47e75264976844fd1",
          "blockNumber": "0x1cec2d1",
          "blockTimestamp": "0x68b0e514",
          "transactionHash": "0xaa0ab74547e8079d0c4ee60a775eb86d96cdf35b086a4fc523b8f1c4e7aac26d",
          "transactionIndex": "0x0",
          "logIndex": "0x0",
          "removed": false
        }
      ],
      "logsBloom": "0x00000800000000000002000000000000000000000000000000000000000000000000000000000000000000000000000020000000000000000000000000100000000000000000000000000000000000040000000000000000000000000000000000000900000000000000000000000000000800000000000000000000000000000000000000000000000000000000000000000000000000000000000000000000000000000000200000000004000000000000000000008000000000000000000000000000000000000000000000000000000000000000000000000000000000100000000000000000400000000000000001000800000000000000000000000000",
      "type": "0x2",
      "transactionHash": "0xaa0ab74547e8079d0c4ee60a775eb86d96cdf35b086a4fc523b8f1c4e7aac26d",
      "transactionIndex": "0x0",
      "blockHash": "0xbe53ecd335cd542aea8ce0f3b5ec1c9d39875dff6d1469c47e75264976844fd1",
      "blockNumber": "0x1cec2d1",
      "gasUsed": "0x6573b",
      "effectiveGasPrice": "0x1",
      "blobGasPrice": "0x1",
      "from": "0x3c44cdddb6a900fa2b585dd299e03d12fa4293bc",
      "to": "0xb99cc53e8db7018f557606c2a5b066527bf96b26",
      "contractAddress": null
    }
  ],
  "libraries": [],
  "pending": [],
  "returns": {},
  "timestamp": 1757443168,
  "chain": 31338,
  "commit": "cc07a66"
}